:100000000C942A000C9477020C9447000C9447003F
:100010000C9447000C9447000C9447000C94470044
:100020000C9447000C9447000C9447000C94470034
:100030000C9447000C9447000C948D020C944700DC
:100040000C9447000C9447000C9447000C94470014
:100050000C94470011241FBECFE5D8E0DEBFCDBF12
:1000600010E0A0E6B0E0EEE9FBE002C005900D92E2
:10007000AC36B107D9F720E0ACE6B0E001C01D9284
:10008000AA38B207E1F70E94FF010C94CD050C9449
:1000900000002BB32F702BBB8433910508F0DC9A42
:1000A0008736910518F02BB320632BBB8A39910555
:1000B00018F02BB320672BBB8D3C910518F08BB348
:1000C000806F8BBB08958AB3806F8ABBDC980895DC
:1000D00040918800509189002091860030918700DE
:1000E0004217530748F0241B350B2D5E3F4F3093CA
:1000F0008500209384001BC0241B350B215031093F
:10010000309385002093840012C0909389008093DF
:10011000880006C080E790E0909389008093880073
:10012000559A80E090E0089581E090E00895209154
:1001300084003091850022303105B4F3E0918800CD
:10014000F0918900DC012C9120832091880030916E
:1001500089002F5F3F4FB0E024383B0738F020E79D
:1001600030E0309389002093880004C030938900E8
:1001700020938800E0918800F0918900DC011196BD
:100180008C91808380918800909189000196B0E0E5
:1001900084389B0708F0BECFB8CF80E790E09093FB
:1001A000870080938600909389008093880008954B
:1001B000C39A85E88A95F1F70000C3980895C29A1A
:1001C0000895C298089598B39F7098BB28B330E102
:1001D000839FC0011124822B88BB0E94D800089500
:1001E000CF93C82F0E94E1008C2F82958F700E94C0
:1001F000E3008C2F8F700E94E300CF91089582E07E
:100200000E94F0008FE99FE00197F1F700C0000025
:10021000089580EC0E94F0008FEC97E00197F1F7D1
:1002200000C000000895CF93C82F0E94DF008C2FDC
:1002300082958F700E94E3008C2F8F700E94E300E4
:100240000E94E100CF91089580E00E94F0008FE6C7
:1002500097E10197F1F700C0000081E00E94F000F3
:100260008FE697E10197F1F700C00000089587B38A
:100270008C6F87BB0E94E10088B3806388BB88B322
:100280008F7388BB8FE295E70197F1F700C00000FC
:100290000E94D8008FE097E20197F1F700C00000BC
:1002A0000E94D8008FE891E00197F1F700C00000AC
:1002B0000E94D800C59A88B38F7288BB0E94D8006C
:1002C0008FE697E10197F1F700C000008CE20E94F1
:1002D000F0008EE00E94F0000E94240108950F9328
:1002E0001F93CF93DF931616170654F48C01EC017D
:1002F000060F171F89910E941301C017D107D1F76C
:10030000DF91CF911F910F91089580E48BBF85B746
:10031000826085BF85B78E7F85BF08958FB58C7F3E
:100320008FBD8EB5877E8EBD8EB583608EBD8EB53A
:100330008B7F8EBD1DBC1CBC0895D09887B1807E7C
:1003400087B93F983E9A379A309886B1866086B9C9
:100350003D9A0895369907C085B190E090936D005D
:1003600080936C00369A08958F9A85B5886485BD10
:100370008FEF83BD85B5897F85BD85B5816085BDDE
:1003800085B5806285BD85B58F7E85BD089583E383
:1003900089B910BC88E48AB986E880BD559A089569
:1003A0000F931F93CF93DF93CDB7DEB72F970FB681
:1003B000F894DEBF0FBECDBF9F938F9380E690E091
:1003C0009F938F938E010F5F1F4F1F930F930E9478
:1003D000F5026FE070E0C8010E946F010F900F906E
:1003E0000F900F900F900F902F960FB6F894DEBFDE
:1003F0000FBECDBFDF91CF911F910F9108950E9445
:1004000063000E9437010E9485010E948E010E94B4
:100410009D010E94B4010E94C7010E94CD00789402
:1004200085E690E00E9468000F2EC12CF7E8DF2ED1
:10043000F3E9EF2EF3E0FF2EF02D14E6CCE6D0E04A
:1004400080916C0090916D000E9449000E94AA0169
:100450000E94FF0020916E0030916F00C901A0E062
:10046000B0E0880F991FAA1FBB1F880F991FAA1FF2
:10047000BB1F9C01AD01220F331F441F551F220FCC
:10048000331F441F551FC701B6010E94C402C90192
:100490000E94D0010E94090180916C0090916D0032
:1004A000189F9001199F300D1124A1E8B0E80E9417
:1004B000E602880F892F881F990B91950E94D00121
:1004C0000E94090180916E0090916F00880F991F22
:1004D000880F991F880F991F0E94D001888183BDC2
:1004E0008FE19EE40197F1F700C00000A9CF1F92B1
:1004F0000F920FB60F9211248F939F938CB59DB5D9
:1005000090936F0080936E001DBC1CBC9F918F91D7
:100510000F900FBE0F901F9018951F920F920FB65D
:100520000F9211242F938F939F93EF93FF93E0915A
:100530008600F09187008091880090918900E817EB
:10054000F90711F4559816C080818CB98091860006
:1005500090918700019620E08438920728F49093C8
:1005600087008093860006C080E790E09093870024
:1005700080938600FF91EF919F918F912F910F9023
:100580000FBE0F901F901895A1E21A2EAA1BBB1B3D
:10059000FD010DC0AA1FBB1FEE1FFF1FA217B3074F
:1005A000E407F50720F0A21BB30BE40BF50B661F65
:1005B000771F881F991F1A9469F760957095809529
:1005C00090959B01AC01BD01CF010895A29FB001A0
:1005D000B39FC001A39F700D811D1124911DB29F77
:1005E000700D811D1124911D0895AEE0B0E0EBEF78
:1005F000F2E00C94A4050D891E8986E08C831A8391
:1006000009838FEF9FE79E838D83AE01475E5F4F27
:100610006F89788DCE0101960E9418032F8138854D
:10062000F801E20FF31F10822E96E4E00C94C0054F
:10063000ACE0B0E0EEE1F3E00C9496057C016B01D8
:100640008A01FC0117821682838181FFBDC1CE0120
:1006500001964C01F7019381F60193FD859193FF7B
:1006600081916F01882309F4ABC1853239F493FD80
:10067000859193FF81916F01853229F4B70190E054
:100680000E940005E7CF512C312C20E02032A0F44D
:100690008B3269F030F4803259F0833269F4206192
:1006A0002CC08D3239F0803339F4216026C02260AD
:1006B000246023C0286021C027FD27C030ED380FFB
:1006C0003A3078F426FF06C0FAE05F9E300D112420
:1006D000532E13C08AE0389E300D1124332E206231
:1006E0000CC08E3221F426FD6BC1206406C08C360E
:1006F00011F4206802C0883641F4F60193FD85911B
:1007000093FF81916F018111C1CF982F9F7D9554E7
:10071000933028F40C5F1F4FFFE3F9830DC083363D
:1007200031F0833771F0833509F05BC022C0F801E6
:10073000808189830E5F1F4F44244394512C5401C0
:1007400015C03801F2E06F0E711CF801A080B18075
:1007500026FF03C0652D70E002C06FEF7FEFC5017B
:100760002C870E94F5042C0183012C852F77222EE3
:1007700017C03801F2E06F0E711CF801A080B18043
:1007800026FF03C0652D70E002C06FEF7FEFC5014B
:100790002C870E94EA042C012C852068222E8301DC
:1007A00023FC1BC0832D90E048165906B0F4B70116
:1007B00080E290E00E9400053A94F4CFF50127FC16
:1007C000859127FE81915F01B70190E00E940005AD
:1007D00031103A94F1E04F1A51084114510471F765
:1007E000E5C0843611F0893639F5F80127FF07C0D6
:1007F00060817181828193810C5F1F4F08C060818D
:100800007181072E000C880B990B0E5F1F4F2F76FE
:10081000722E97FF09C090958095709561957F4FD6
:100820008F4F9F4F2068722E2AE030E0A4010E9473
:100830003805A82EA81844C0853729F42F7EB22E7B
:100840002AE030E025C0F22FF97FBF2E8F36C1F0AD
:1008500018F4883579F0B4C0803719F0883721F062
:10086000AFC02F2F2061B22EB4FE0DC08B2D84603F
:10087000B82E09C024FF0AC09F2F9660B92E06C06B
:1008800028E030E005C020E130E002C020E132E0A5
:10089000F801B7FE07C060817181828193810C5F8E
:1008A0001F4F06C06081718180E090E00E5F1F4F96
:1008B000A4010E943805A82EA818FB2DFF777F2ED3
:1008C00076FE0BC0372D3E7FA51450F474FE0AC08F
:1008D00072FC08C0372D3E7E05C0BA2C372D03C0F0
:1008E000BA2C01C0B52C34FF0DC0FE01EA0DF11D7C
:1008F0008081803311F4397E09C032FF06C0B39481
:10090000B39404C0832F867809F0B39433FD13C0E9
:1009100030FF06C05A2CB31418F4530C5B18B32CD8
:10092000B31468F4B70180E290E03C870E940005B0
:10093000B3943C85F5CFB31410F43B1801C0312CAF
:1009400034FF12C0B70180E390E03C870E940005AD
:100950003C8532FF17C031FD03C088E790E002C03C
:1009600088E590E0B7010CC0832F867859F031FFFD
:1009700002C08BE201C080E237FD8DE2B70190E05A
:100980000E940005A51438F4B70180E390E00E94AE
:1009900000055A94F7CFAA94F401EA0DF11D808165
:1009A000B70190E00E940005A110F5CF332009F4B3
:1009B00051CEB70180E290E00E9400053A94F6CF54
:1009C000F7018681978102C08FEF9FEF2C96E2E1BD
:1009D0000C94B205FC010590615070400110D8F7ED
:1009E000809590958E0F9F1F0895FC016150704077
:1009F00001900110D8F7809590958E0F9F1F089554
:100A00000F931F93CF93DF93FB01238121FD03C03D
:100A10008FEF9FEF28C022FF16C0468157812481A7
:100A200035814217530744F4A081B1819D012F5FA6
:100A30003F4F318320838C93268137812F5F3F4F37
:100A40003783268310C0EB01092F182F0084F1850E
:100A5000E02D0995892BE1F68E819F8101969F8378
:100A60008E83812F902FDF91CF911F910F91089549
:100A7000FA01AA27283051F1203181F1E8946F93CF
:100A80006E7F6E5F7F4F8F4F9F4FAF4FB1E03ED075
:100A9000B4E03CD0670F781F891F9A1FA11D680F13
:100AA000791F8A1F911DA11D6A0F711D811D911D46
:100AB000A11D20D009F468943F912AE0269F1124BB
:100AC0003019305D3193DEF6CF010895462F47701F
:100AD000405D4193B3E00FD0C9F7F6CF462F4F707A
:100AE000405D4A3318F0495D31FD4052419302D0D8
:100AF000A9F7EACFB4E0A69597958795779567957E
:100B0000BA95C9F700976105710508959B01AC017D
:100B10000A2E06945795479537952795BA95C9F7A4
:100B2000620F731F841F951FA01D08952F923F927F
:100B30004F925F926F927F928F929F92AF92BF92ED
:100B4000CF92DF92EF92FF920F931F93CF93DF9399
:100B5000CDB7DEB7CA1BDB0B0FB6F894DEBF0FBEF6
:100B6000CDBF09942A88398848885F846E847D8443
:100B70008C849B84AA84B984C884DF80EE80FD8045
:100B80000C811B81AA81B981CE0FD11D0FB6F894BB
:0E0B9000DEBF0FBECDBFED010895F894FFCF7C
:0C0B9E00253135750048616C6C6F00005B
:00000001FF
