S0170000416E746946616E436F6E74726F6C6C2E737265631F
S11300000C942A000C94B1020C9447000C94470001
S11300100C9447000C9447000C9447000C94470040
S11300200C9447000C9447000C9447000C94470030
S11300300C9447000C9447000C94C7020C9447009E
S11300400C9447000C9447000C9447000C94470010
S11300500C94470011241FBECFE5D8E0DEBFCDBF0E
S113006010E0A0E6B0E0E2E1FCE002C005900D92F1
S1130070A439B107D9F720E0A4E9B0E001C01D928A
S1130080A43CB207E1F70E94B3010C9407060C9458
S113009000002BB32F702BBB8433910508F0DC9A3E
S11300A08736910518F02BB320632BBB8A39910551
S11300B018F02BB320672BBB8D3C910518F08BB344
S11300C0806F8BBB08958AB3806F8ABBDC980895D8
S11300D04091C2005091C3002091C0003091C100F2
S11300E04217530728F0241B350B295D3F4F04C0EA
S11300F0241B350B215031092617370744F11616F6
S113010017060CF5FC01680F791F48E950E0A0912F
S1130110C200B091C30091919C932091C200309190
S1130120C3002F5F3F4F80E0203C380728F4309312
S1130130C3002093C20004C05093C3004093C20084
S1130140E617F70721F7559A80E090E0089581E0DB
S113015090E0089588E990E09093C1008093C000F6
S11301609093C3008093C2000895C39A85E88A954A
S1130170F1F70000C3980895C29A0895C2980895AB
S113018098B39F7098BB28B330E1839FC0011124BA
S1130190822B88BB0E94B5000895CF93C82F0E947C
S11301A0BE008C2F82958F700E94C0008C2F8F70A0
S11301B00E94C000CF91089582E00E94CD008FE993
S11301C09FE00197F1F700C00000089580EC0E94C1
S11301D0CD008FEC97E00197F1F700C0000008957F
S11301E0CF93C82F0E94BC008C2F82958F700E94E1
S11301F0C0008C2F8F700E94C0000E94BE00CF915F
S1130200089580E00E94CD008FE697E10197F1F711
S113021000C0000081E00E94CD008FE697E10197C5
S1130220F1F700C00000089587B38C6F87BB0E946C
S1130230BE0088B3806388BB88B38F7388BB8FE2AA
S113024095E70197F1F700C000000E94B5008FE028
S113025097E20197F1F700C000000E94B5008FE813
S113026091E00197F1F700C000000E94B500C59A23
S113027088B38F7288BB0E94B5008FE697E101971F
S1130280F1F700C000008CE20E94CD008EE00E94D5
S1130290CD000E94010108950F931F93CF93DF9324
S11302A01616170654F48C01EC01060F171F8991DA
S11302B00E94F000C017D107D1F787EC90E00197B6
S11302C0F1F700C00000DF91CF911F910F910895C5
S11302D080E48BBF85B7826085BF85B78E7F85BF7D
S11302E008958FB58C7F8FBD8EB5877E8EBD8EB5FC
S11302F083608EBD8EB58B7F8EBD1DBC1CBC0895E6
S1130300D09887B1807E87B93F983E9A379A3098C3
S113031086B1866086B93D9A0895369907C085B13D
S113032090E09093950080939400369A08958F9A64
S113033085B5886485BD8FEF83BD85B5897F85BD0F
S113034085B5816085BD85B5806285BD85B58F7EA7
S113035085BD089510BC83E389B988E08AB986E82D
S113036080BD559A0895CF93DF93CDB7DEB72C9710
S11303700FB6F894DEBF0FBECDBF0E9463000E948B
S113038014010E9468010E9471010E9480010E9470
S113039097010E94AA000E94AA0178940F2EF0E609
S11303A06F2EF0E07F2EF02DCE0101965C010F2E12
S11303B0F9E64F2EF0E05F2EF02D6E0195E0C90EA8
S11303C0D11C0F2EF7E72F2EF0E03F2EF02D7E01EB
S11303D0EAE0EE0EF11CE4E9F0E0808183BD809058
S11303E0940090909500C4010E9449000E948D01E0
S11303F00091960010919700C801A0E0B0E0880F2A
S1130400991FAA1FBB1F880F991FAA1FBB1F9C01FE
S1130410AD01220F331F441F551F220F331F441FEA
S1130420551F60E077E883E993E00E94FE023F9362
S11304302F937F926F92BF92AF920E942F030E94DC
S1130440DC0064E070E0C5010E944C0165E070E0EE
S113045084E690E00E944C01000F111F000F111F51
S1130460000F111F1F930F935F924F92DF92CF9251
S11304700E942F0365E070E0C6010E944C0162E017
S113048070E08DE690E00E944C010E94E60066E078
S113049070E080E790E00E944C01F4E6F89D900142
S11304A0F99D300D1124A1E8B0E80E942003880FC3
S11304B0892F881F990B91959F938F933F922F9229
S11304C0FF92EF920E942F0363E070E0C7010E9445
S11304D04C0161E070E08BE790E00E944C0161E028
S11304E070E08DE790E00E94680061E070E08FE7C3
S11304F090E00E94680064E070E0C5010E9468001A
S113050067E070E081E890E00E94680065E070E0D8
S1130510C6010E94680065E070E089E890E00E94EE
S1130520680063E070E0C7010E94680063E070E067
S11305308FE890E00E94680062E070E080E990E05B
S11305400E9468002FEF80E792E0215080409040A5
S1130550E1F700C000000FB6F894DEBF0FBECDBFB8
S11305603ACF1F920F920FB60F9211248F939F933D
S11305708CB59DB590939700809396001DBC1CBCD0
S11305809F918F910F900FBE0F901F9018951F92FF
S11305900F920FB60F9211242F938F939F93EF9383
S11305A0FF93E091C000F091C1008091C20090914E
S11305B0C300E817F90711F4559816C080818CB967
S11305C08091C0009091C100019620E0803C920788
S11305D028F49093C1008093C00006C088E990E09D
S11305E09093C1008093C000FF91EF919F918F91F0
S11305F02F910F900FBE0F901F901895A1E21A2E05
S1130600AA1BBB1BFD010DC0AA1FBB1FEE1FFF1FB2
S1130610A217B307E407F50720F0A21BB30BE40B02
S1130620F50B661F771F881F991F1A9469F7609549
S11306307095809590959B01AC01BD01CF01089503
S1130640A29FB001B39FC001A39F700D811D11240F
S1130650911DB29F700D811D1124911D0895AEE06E
S1130660B0E0E5E3F3E00C94DE050D891E8986E035
S11306708C831A8309838FEF9FE79E838D83AE015A
S1130680475E5F4F6F89788DCE0101960E945203B9
S11306902F813885F801E20FF31F10822E96E4E0D3
S11306A00C94FA05ACE0B0E0E8E5F3E00C94D00576
S11306B07C016B018A01FC0117821682838181FF10
S11306C0BDC1CE0101964C01F7019381F60193FD62
S11306D0859193FF81916F01882309F4ABC1853221
S11306E039F493FD859193FF81916F01853229F44B
S11306F0B70190E00E943A05E7CF512C312C20E05D
S11307002032A0F48B3269F030F4803259F0833215
S113071069F420612CC08D3239F0803339F42160C2
S113072026C02260246023C0286021C027FD27C082
S113073030ED380F3A3078F426FF06C0FAE05F9EB9
S1130740300D1124532E13C08AE0389E300D11242D
S1130750332E20620CC08E3221F426FD6BC120643E
S113076006C08C3611F4206802C0883641F4F601C4
S113077093FD859193FF81916F018111C1CF982FD2
S11307809F7D9554933028F40C5F1F4FFFE3F9834A
S11307900DC0833631F0833771F0833509F05BC0C7
S11307A022C0F801808189830E5F1F4F4424439443
S11307B0512C540115C03801F2E06F0E711CF80180
S11307C0A080B18026FF03C0652D70E002C06FEFEA
S11307D07FEFC5012C870E942F052C0183012C85F6
S11307E02F77222E17C03801F2E06F0E711CF8012A
S11307F0A080B18026FF03C0652D70E002C06FEFBA
S11308007FEFC5012C870E9424052C012C852068CC
S1130810222E830123FC1BC0832D90E04816590629
S1130820B0F4B70180E290E00E943A053A94F4CF24
S1130830F50127FC859127FE81915F01B70190E0C6
S11308400E943A0531103A94F1E04F1A51084114CC
S1130850510471F7E5C0843611F0893639F5F80191
S113086027FF07C060817181828193810C5F1F4FD4
S113087008C060817181072E000C880B990B0E5FF4
S11308801F4F2F76722E97FF09C090958095709513
S113089061957F4F8F4F9F4F2068722E2AE030E082
S11308A0A4010E947205A82EA81844C0853729F413
S11308B02F7EB22E2AE030E025C0F22FF97FBF2E22
S11308C08F36C1F018F4883579F0B4C0803719F048
S11308D0883721F0AFC02F2F2061B22EB4FE0DC097
S11308E08B2D8460B82E09C024FF0AC09F2F966008
S11308F0B92E06C028E030E005C020E130E002C097
S113090020E132E0F801B7FE07C060817181828185
S113091093810C5F1F4F06C06081718180E090E07D
S11309200E5F1F4FA4010E947205A82EA818FB2D6C
S1130930FF777F2E76FE0BC0372D3E7FA51450F433
S113094074FE0AC072FC08C0372D3E7E05C0BA2C66
S1130950372D03C0BA2C01C0B52C34FF0DC0FE01E5
S1130960EA0DF11D8081803311F4397E09C032FF14
S113097006C0B394B39404C0832F867809F0B3946B
S113098033FD13C030FF06C05A2CB31418F4530CB3
S11309905B18B32CB31468F4B70180E290E03C8791
S11309A00E943A05B3943C85F5CFB31410F43B1878
S11309B001C0312C34FF12C0B70180E390E03C87C2
S11309C00E943A053C8532FF17C031FD03C088E719
S11309D090E002C088E590E0B7010CC0832F8678D0
S11309E059F031FF02C08BE201C080E237FD8DE295
S11309F0B70190E00E943A05A51438F4B70180E3EA
S1130A0090E00E943A055A94F7CFAA94F401EA0DB3
S1130A10F11D8081B70190E00E943A05A110F5CF45
S1130A20332009F451CEB70180E290E00E943A05E8
S1130A303A94F6CFF7018681978102C08FEF9FEF3A
S1130A402C96E2E10C94EC05FC0105906150704099
S1130A500110D8F7809590958E0F9F1F0895FC0183
S1130A606150704001900110D8F7809590958E0FD9
S1130A709F1F08950F931F93CF93DF93FB0123814F
S1130A8021FD03C08FEF9FEF28C022FF16C04681CF
S1130A905781248135814217530744F4A081B181E1
S1130AA09D012F5F3F4F318320838C9326813781B3
S1130AB02F5F3F4F3783268310C0EB01092F182F78
S1130AC00084F185E02D0995892BE1F68E819F81C3
S1130AD001969F838E83812F902FDF91CF911F9159
S1130AE00F910895FA01AA27283051F1203181F19C
S1130AF0E8946F936E7F6E5F7F4F8F4F9F4FAF4F22
S1130B00B1E03ED0B4E03CD0670F781F891F9A1F34
S1130B10A11D680F791F8A1F911DA11D6A0F711DE8
S1130B20811D911DA11D20D009F468943F912AE0F4
S1130B30269F11243019305D3193DEF6CF010895DC
S1130B40462F4770405D4193B3E00FD0C9F7F6CF0D
S1130B50462F4F70405D4A3318F0495D31FD4052D5
S1130B60419302D0A9F7EACFB4E0A695979587956B
S1130B7077956795BA95C9F700976105710508954A
S1130B809B01AC010A2E06945795479537952795F6
S1130B90BA95C9F7620F731F841F951FA01D08958E
S1130BA02F923F924F925F926F927F928F929F9279
S1130BB0AF92BF92CF92DF92EF92FF920F931F9367
S1130BC0CF93DF93CDB7DEB7CA1BDB0B0FB6F89418
S1130BD0DEBF0FBECDBF09942A88398848885F8458
S1130BE06E847D848C849B84AA84B984C884DF80C9
S1130BF0EE80FD800C811B81AA81B981CE0FD11DAD
S1130C000FB6F894DEBF0FBECDBFED010895F89482
S1050C10FFCF10
S1130C122534750072706D200025357500757300DA
S1130C22447574793A20002533750025001B00634E
S1130C32002052504D207C20002075730D0A00259F
S1070C420D0A000093
S9030000FC
