S0170000416E746946616E436F6E74726F6C6C2E737265631F
S11300000C942A000C9406020C9447000C944700AC
S11300100C9447000C9447000C9447000C94470040
S11300200C9447000C9447000C9447000C94470030
S11300300C9447000C9447000C941C020C94470049
S11300400C9447000C9447000C9447000C94470010
S11300500C94470011241FBECFE5D8E0DEBFCDBF0E
S113006010E0A0E6B0E0E2E6FAE002C005900D92EE
S1130070A636B107D9F720E0A6E6B0E001C01D928C
S1130080A138B207E1F70E948F010C942F050C945C
S113009000002BB32F702BBB8433910508F0DC9A3E
S11300A08736910518F02BB320632BBB8A39910551
S11300B018F02BB320672BBB8D3C910518F08BB344
S11300C0806F8BBB08958AB3806F8ABBDC980895D8
S11300D0C39A85E88A95F1F70000C3980895C29AF7
S11300E00895C298089598B39F7098BB28B330E1DF
S11300F0839FC0011124822B88BB0E94680008954D
S1130100CF93C82F0E9471008C2F82958F700E940C
S113011073008C2F8F700E947300CF91089582E03A
S11301200E9480008FE99FE00197F1F700C0000072
S1130130089580EC0E9480008FEC97E00197F1F71E
S113014000C000000895CF93C82F0E946F008C2F29
S113015082958F700E9473008C2F8F700E947300A1
S11301600E947100CF91089580E00E9480008FE684
S113017097E10197F1F700C0000081E00E94800040
S11301808FE697E10197F1F700C00000089587B367
S11301908C6F87BB0E94710088B3806388BB88B36F
S11301A08F7388BB8FE295E70197F1F700C00000D9
S11301B00E9468008FE097E20197F1F700C0000009
S11301C00E9468008FE891E00197F1F700C00000F9
S11301D00E946800C59A88B38F7288BB0E94680029
S11301E08FE697E10197F1F700C000008CE20E94CE
S11301F080008EE00E9480000E94B40008950F9356
S11302001F93CF93DF931616170654F48C01EC0159
S1130210060F171F89910E94A300C017D107D1F7B9
S1130220DF91CF911F910F91089580E48BBF85B723
S1130230826085BF85B78E7F85BF08958FB58C7F1B
S11302408FBD8EB5877E8EBD8EB583608EBD8EB517
S11302508B7F8EBD1DBC1CBC0895D09887B1807E59
S113026087B93F983E9A379A309886B1866086B9A6
S11302703D9A0895369907C085B190E090937E0029
S113028080937D00369A08958F9A85B5886485BDDC
S11302908FEF83BD85B5897F85BD85B5816085BDBB
S11302A085B5806285BD85B58F7E85BD089583E360
S11302B089B910BC8AB188648AB986E880BD08957A
S11302C00F931F93CF93DF93CDB7DEB72F970FB65E
S11302D0F894DEBF0FBECDBF9F938F9380E690E06E
S11302E09F938F938E010F5F1F4F1F930F930E9455
S11302F057026FE070E0C8010E94FF000F900F905A
S11303000F900F900F900F902F960FB6F894DEBFBA
S11303100FBECDBFDF91CF911F910F9108950E9421
S113032063000E94C7000E9415010E941E010E94E2
S11303302D010E9444010E945701E6E6F0E010827C
S11303401182128278940F2EC12CF7E8DF2EF3E984
S1130350EF2EF3E0FF2EF02D14E6CDE7D0E08091F0
S11303607D0090917E000E9449000E943A010E9403
S11303708F0020917F0030918000C901A0E0B0E09F
S1130380880F991FAA1FBB1F880F991FAA1FBB1F85
S11303909C01AD01220F331F441F551F220F331F31
S11303A0441F551FC701B6010E942602C9010E94BD
S11303B060010E94990080917D0090917E00189FB9
S11303C09001199F300D1124A1E8B0E80E94480261
S11303D0880F892F881F990B91950E9460010E94B4
S11303E0990080917F0090918000880F991F880F59
S11303F0991F880F991F0E946001888183BD8FE136
S11304009EE40197F1F700C00000A9CF1F920F925C
S11304100FB60F9211248F939F938CB59DB5909333
S1130420800080937F001DBC1CBC9F918F910F9016
S11304300FBE0F901F9018951F920F920FB60F9238
S113044011240F900FBE0F901F901895A1E21A2E41
S1130450AA1BBB1BFD010DC0AA1FBB1FEE1FFF1F64
S1130460A217B307E407F50720F0A21BB30BE40BB4
S1130470F50B661F771F881F991F1A9469F76095FB
S11304807095809590959B01AC01BD01CF010895B5
S1130490A29FB001B39FC001A39F700D811D1124C1
S11304A0911DB29F700D811D1124911D0895AEE020
S11304B0B0E0EDE5F2E00C9406050D891E8986E0B6
S11304C08C831A8309838FEF9FE79E838D83AE010C
S11304D0475E5F4F6F89788DCE0101960E947A0244
S11304E02F813885F801E20FF31F10822E96E4E085
S11304F00C942205ACE0B0E0E0E8F2E00C94F804DF
S11305007C016B018A01FC0117821682838181FFC1
S1130510BDC1CE0101964C01F7019381F60193FD13
S1130520859193FF81916F01882309F4ABC18532D2
S113053039F493FD859193FF81916F01853229F4FC
S1130540B70190E00E946204E7CF512C312C20E0E7
S11305502032A0F48B3269F030F4803259F08332C7
S113056069F420612CC08D3239F0803339F4216074
S113057026C02260246023C0286021C027FD27C034
S113058030ED380F3A3078F426FF06C0FAE05F9E6B
S1130590300D1124532E13C08AE0389E300D1124DF
S11305A0332E20620CC08E3221F426FD6BC12064F0
S11305B006C08C3611F4206802C0883641F4F60176
S11305C093FD859193FF81916F018111C1CF982F84
S11305D09F7D9554933028F40C5F1F4FFFE3F983FC
S11305E00DC0833631F0833771F0833509F05BC079
S11305F022C0F801808189830E5F1F4F44244394F5
S1130600512C540115C03801F2E06F0E711CF80131
S1130610A080B18026FF03C0652D70E002C06FEF9B
S11306207FEFC5012C870E9457042C0183012C8580
S11306302F77222E17C03801F2E06F0E711CF801DB
S1130640A080B18026FF03C0652D70E002C06FEF6B
S11306507FEFC5012C870E944C042C012C85206857
S1130660222E830123FC1BC0832D90E048165906DB
S1130670B0F4B70180E290E00E9462043A94F4CFAF
S1130680F50127FC859127FE81915F01B70190E078
S11306900E94620431103A94F1E04F1A5108411457
S11306A0510471F7E5C0843611F0893639F5F80143
S11306B027FF07C060817181828193810C5F1F4F86
S11306C008C060817181072E000C880B990B0E5FA6
S11306D01F4F2F76722E97FF09C0909580957095C5
S11306E061957F4F8F4F9F4F2068722E2AE030E034
S11306F0A4010E949A04A82EA81844C0853729F49E
S11307002F7EB22E2AE030E025C0F22FF97FBF2ED3
S11307108F36C1F018F4883579F0B4C0803719F0F9
S1130720883721F0AFC02F2F2061B22EB4FE0DC048
S11307308B2D8460B82E09C024FF0AC09F2F9660B9
S1130740B92E06C028E030E005C020E130E002C048
S113075020E132E0F801B7FE07C060817181828137
S113076093810C5F1F4F06C06081718180E090E02F
S11307700E5F1F4FA4010E949A04A82EA818FB2DF7
S1130780FF777F2E76FE0BC0372D3E7FA51450F4E5
S113079074FE0AC072FC08C0372D3E7E05C0BA2C18
S11307A0372D03C0BA2C01C0B52C34FF0DC0FE0197
S11307B0EA0DF11D8081803311F4397E09C032FFC6
S11307C006C0B394B39404C0832F867809F0B3941D
S11307D033FD13C030FF06C05A2CB31418F4530C65
S11307E05B18B32CB31468F4B70180E290E03C8743
S11307F00E946204B3943C85F5CFB31410F43B1803
S113080001C0312C34FF12C0B70180E390E03C8773
S11308100E9462043C8532FF17C031FD03C088E7A3
S113082090E002C088E590E0B7010CC0832F867881
S113083059F031FF02C08BE201C080E237FD8DE246
S1130840B70190E00E946204A51438F4B70180E374
S113085090E00E9462045A94F7CFAA94F401EA0D3E
S1130860F11D8081B70190E00E946204A110F5CFD0
S1130870332009F451CEB70180E290E00E94620473
S11308803A94F6CFF7018681978102C08FEF9FEFEC
S11308902C96E2E10C941405FC0105906150704023
S11308A00110D8F7809590958E0F9F1F0895FC0135
S11308B06150704001900110D8F7809590958E0F8B
S11308C09F1F08950F931F93CF93DF93FB01238101
S11308D021FD03C08FEF9FEF28C022FF16C0468181
S11308E05781248135814217530744F4A081B18193
S11308F09D012F5F3F4F318320838C932681378165
S11309002F5F3F4F3783268310C0EB01092F182F29
S11309100084F185E02D0995892BE1F68E819F8174
S113092001969F838E83812F902FDF91CF911F910A
S11309300F910895FA01AA27283051F1203181F14D
S1130940E8946F936E7F6E5F7F4F8F4F9F4FAF4FD3
S1130950B1E03ED0B4E03CD0670F781F891F9A1FE6
S1130960A11D680F791F8A1F911DA11D6A0F711D9A
S1130970811D911DA11D20D009F468943F912AE0A6
S1130980269F11243019305D3193DEF6CF0108958E
S1130990462F4770405D4193B3E00FD0C9F7F6CFBF
S11309A0462F4F70405D4A3318F0495D31FD405287
S11309B0419302D0A9F7EACFB4E0A695979587951D
S11309C077956795BA95C9F70097610571050895FC
S11309D09B01AC010A2E06945795479537952795A8
S11309E0BA95C9F7620F731F841F951FA01D089540
S11309F02F923F924F925F926F927F928F929F922B
S1130A00AF92BF92CF92DF92EF92FF920F931F9318
S1130A10CF93DF93CDB7DEB7CA1BDB0B0FB6F894C9
S1130A20DEBF0FBECDBF09942A88398848885F8409
S1130A306E847D848C849B84AA84B984C884DF807A
S1130A40EE80FD800C811B81AA81B981CE0FD11D5E
S1130A500FB6F894DEBF0FBECDBFED010895F89434
S1050A60FFCFC2
S1090A622531357500008A
S9030000FC
